{
  "_format": "hh-sol-artifact-1",
  "contractName": "StegoRegistry",
  "sourceName": "contracts/StegoRegistry.sol",
  "abi": [
    {
      "anonymous": false,
      "inputs": [
        {
          "indexed": true,
          "internalType": "bytes32",
          "name": "imageHash",
          "type": "bytes32"
        },
        {
          "indexed": false,
          "internalType": "address",
          "name": "owner",
          "type": "address"
        }
      ],
      "name": "StegoRegistered",
      "type": "event"
    },
    {
      "inputs": [
        {
          "internalType": "bytes32",
          "name": "_imageHash",
          "type": "bytes32"
        }
      ],
      "name": "getFragment",
      "outputs": [
        {
          "internalType": "string",
          "name": "",
          "type": "string"
        }
      ],
      "stateMutability": "view",
      "type": "function"
    },
    {
      "inputs": [
        {
          "internalType": "bytes32",
          "name": "",
          "type": "bytes32"
        }
      ],
      "name": "records",
      "outputs": [
        {
          "internalType": "address",
          "name": "owner",
          "type": "address"
        },
        {
          "internalType": "string",
          "name": "fragment",
          "type": "string"
        },
        {
          "internalType": "uint256",
          "name": "timestamp",
          "type": "uint256"
        }
      ],
      "stateMutability": "view",
      "type": "function"
    },
    {
      "inputs": [
        {
          "internalType": "bytes32",
          "name": "_imageHash",
          "type": "bytes32"
        },
        {
          "internalType": "string",
          "name": "_fragment",
          "type": "string"
        }
      ],
      "name": "registerStego",
      "outputs": [],
      "stateMutability": "nonpayable",
      "type": "function"
    }
  ],
  "bytecode": "0x608060405234801561001057600080fd5b50610a6b806100206000396000f3fe608060405234801561001057600080fd5b50600436106100415760003560e01c806301e64725146100465780630220a73014610078578063ef5c2f3614610094575b600080fd5b610060600480360381019061005b91906103c8565b6100c4565b60405161006f939291906104df565b60405180910390f35b610092600480360381019061008d9190610652565b610196565b005b6100ae60048036038101906100a991906103c8565b6102d7565b6040516100bb91906106ae565b60405180910390f35b60006020528060005260406000206000915090508060000160009054906101000a900473ffffffffffffffffffffffffffffffffffffffff169080600101805461010d906106ff565b80601f0160208091040260200160405190810160405280929190818152602001828054610139906106ff565b80156101865780601f1061015b57610100808354040283529160200191610186565b820191906000526020600020905b81548152906001019060200180831161016957829003601f168201915b5050505050908060020154905083565b600080600084815260200190815260200160002060020154146101ee576040517f08c379a00000000000000000000000000000000000000000000000000000000081526004016101e59061077c565b60405180910390fd5b60405180606001604052803373ffffffffffffffffffffffffffffffffffffffff1681526020018281526020014281525060008084815260200190815260200160002060008201518160000160006101000a81548173ffffffffffffffffffffffffffffffffffffffff021916908373ffffffffffffffffffffffffffffffffffffffff160217905550602082015181600101908161028d9190610948565b5060408201518160020155905050817f6a88e1dc1c6b4ebc883baad9076b1aba761887a7559ad8512929ef4bcbf685cf336040516102cb9190610a1a565b60405180910390a25050565b606060008083815260200190815260200160002060010180546102f9906106ff565b80601f0160208091040260200160405190810160405280929190818152602001828054610325906106ff565b80156103725780601f1061034757610100808354040283529160200191610372565b820191906000526020600020905b81548152906001019060200180831161035557829003601f168201915b50505050509050919050565b6000604051905090565b600080fd5b600080fd5b6000819050919050565b6103a581610392565b81146103b057600080fd5b50565b6000813590506103c28161039c565b92915050565b6000602082840312156103de576103dd610388565b5b60006103ec848285016103b3565b91505092915050565b600073ffffffffffffffffffffffffffffffffffffffff82169050919050565b6000610420826103f5565b9050919050565b61043081610415565b82525050565b600081519050919050565b600082825260208201905092915050565b60005b83811015610470578082015181840152602081019050610455565b60008484015250505050565b6000601f19601f8301169050919050565b600061049882610436565b6104a28185610441565b93506104b2818560208601610452565b6104bb8161047c565b840191505092915050565b6000819050919050565b6104d9816104c6565b82525050565b60006060820190506104f46000830186610427565b8181036020830152610506818561048d565b905061051560408301846104d0565b949350505050565b600080fd5b600080fd5b7f4e487b7100000000000000000000000000000000000000000000000000000000600052604160045260246000fd5b61055f8261047c565b810181811067ffffffffffffffff8211171561057e5761057d610527565b5b80604052505050565b600061059161037e565b905061059d8282610556565b919050565b600067ffffffffffffffff8211156105bd576105bc610527565b5b6105c68261047c565b9050602081019050919050565b82818337600083830152505050565b60006105f56105f0846105a2565b610587565b90508281526020810184848401111561061157610610610522565b5b61061c8482856105d3565b509392505050565b600082601f8301126106395761063861051d565b5b81356106498482602086016105e2565b91505092915050565b6000806040838503121561066957610668610388565b5b6000610677858286016103b3565b925050602083013567ffffffffffffffff8111156106985761069761038d565b5b6106a485828601610624565b9150509250929050565b600060208201905081810360008301526106c8818461048d565b905092915050565b7f4e487b7100000000000000000000000000000000000000000000000000000000600052602260045260246000fd5b6000600282049050600182168061071757607f821691505b60208210810361072a576107296106d0565b5b50919050565b7f496d61676520616c726561647920726567697374657265640000000000000000600082015250565b6000610766601883610441565b915061077182610730565b602082019050919050565b6000602082019050818103600083015261079581610759565b9050919050565b60008190508160005260206000209050919050565b60006020601f8301049050919050565b600082821b905092915050565b6000600883026107fe7fffffffffffffffffffffffffffffffffffffffffffffffffffffffffffffffff826107c1565b61080886836107c1565b95508019841693508086168417925050509392505050565b6000819050919050565b600061084561084061083b846104c6565b610820565b6104c6565b9050919050565b6000819050919050565b61085f8361082a565b61087361086b8261084c565b8484546107ce565b825550505050565b600090565b61088861087b565b610893818484610856565b505050565b5b818110156108b7576108ac600082610880565b600181019050610899565b5050565b601f8211156108fc576108cd8161079c565b6108d6846107b1565b810160208510156108e5578190505b6108f96108f1856107b1565b830182610898565b50505b505050565b600082821c905092915050565b600061091f60001984600802610901565b1980831691505092915050565b6000610938838361090e565b9150826002028217905092915050565b61095182610436565b67ffffffffffffffff81111561096a57610969610527565b5b61097482546106ff565b61097f8282856108bb565b600060209050601f8311600181146109b257600084156109a0578287015190505b6109aa858261092c565b865550610a12565b601f1984166109c08661079c565b60005b828110156109e8578489015182556001820191506020850194506020810190506109c3565b86831015610a055784890151610a01601f89168261090e565b8355505b6001600288020188555050505b505050505050565b6000602082019050610a2f6000830184610427565b9291505056fea26469706673582212203cc8aa934db774057f800da8e1f7f751d7fdc8e4f2301d6942e067a2661f592064736f6c63430008110033",
  "linkReferences": {},
  "deployedLinkReferences": {}
}